{
  "address": "0x080ACC9E07deb1E9Ef351281a01079b0f717BCBF",
  "abi": [
    {
      "inputs": [
        {
          "internalType": "contract IEntryPoint",
          "name": "_entryPoint",
          "type": "address"
        }
      ],
      "stateMutability": "nonpayable",
      "type": "constructor"
    },
    {
      "inputs": [],
      "name": "accountImplementation",
      "outputs": [
        {
          "internalType": "contract SimpleTeamAccount",
          "name": "",
          "type": "address"
        }
      ],
      "stateMutability": "view",
      "type": "function"
    },
    {
      "inputs": [
        {
          "components": [
            {
              "internalType": "bytes32",
              "name": "pubKeySlt1",
              "type": "bytes32"
            },
            {
              "internalType": "bytes32",
              "name": "pubKeySlt2",
              "type": "bytes32"
            },
            {
              "internalType": "enum Access",
              "name": "level",
              "type": "uint8"
            }
          ],
          "internalType": "struct Signer",
          "name": "signer",
          "type": "tuple"
        },
        {
          "internalType": "address",
          "name": "verifier",
          "type": "address"
        },
        {
          "internalType": "uint256",
          "name": "salt",
          "type": "uint256"
        }
      ],
      "name": "createAccount",
      "outputs": [
        {
          "internalType": "contract SimpleTeamAccount",
          "name": "ret",
          "type": "address"
        }
      ],
      "stateMutability": "nonpayable",
      "type": "function"
    },
    {
      "inputs": [
        {
          "components": [
            {
              "internalType": "bytes32",
              "name": "pubKeySlt1",
              "type": "bytes32"
            },
            {
              "internalType": "bytes32",
              "name": "pubKeySlt2",
              "type": "bytes32"
            },
            {
              "internalType": "enum Access",
              "name": "level",
              "type": "uint8"
            }
          ],
          "internalType": "struct Signer",
          "name": "signer",
          "type": "tuple"
        },
        {
          "internalType": "address",
          "name": "verifier",
          "type": "address"
        },
        {
          "internalType": "uint256",
          "name": "salt",
          "type": "uint256"
        }
      ],
      "name": "getAddress",
      "outputs": [
        {
          "internalType": "address",
          "name": "",
          "type": "address"
        }
      ],
      "stateMutability": "view",
      "type": "function"
    }
  ],
  "transactionHash": "0xfe7de3b5b33991169372019a1a143cadc0fe333e9621bf786269eaaeeeaf8a01",
  "args": [
    "0x0000000071727De22E5E9d8BAf0edAc6f37da032"
  ],
  "numDeployments": 1,
  "solcInputHash": "9a89a141ba9db785d46a480d4e61100b",
  "bytecode": "0x60a060405234801561001057600080fd5b50604051612b90380380612b9083398101604081905261002f91610088565b8060405161003c9061007b565b6001600160a01b039091168152602001604051809103906000f080158015610068573d6000803e3d6000fd5b506001600160a01b0316608052506100b8565b61219080610a0083390190565b60006020828403121561009a57600080fd5b81516001600160a01b03811681146100b157600080fd5b9392505050565b6080516109216100df60003960008181604b0152818160eb015261023f01526109216000f3fe608060405234801561001057600080fd5b50600436106100415760003560e01c806311464fbe1461004657806320d4d3dd1461009657806368e91b66146100a9575b600080fd5b61006d7f000000000000000000000000000000000000000000000000000000000000000081565b60405173ffffffffffffffffffffffffffffffffffffffff909116815260200160405180910390f35b61006d6100a4366004610366565b6100bc565b61006d6100b7366004610366565b610203565b60006101f98260001b604051806020016100d590610359565b6020820181038252601f19601f820116604052507f0000000000000000000000000000000000000000000000000000000000000000878760405160240161011d9291906103c6565b604080517fffffffffffffffffffffffffffffffffffffffffffffffffffffffffffffffe0818403018152918152602080830180517bffffffffffffffffffffffffffffffffffffffffffffffffffffffff167fc151c0b90000000000000000000000000000000000000000000000000000000017905290516101a293929101610437565b604080517fffffffffffffffffffffffffffffffffffffffffffffffffffffffffffffffe0818403018152908290526101de92916020016104a5565b60405160208183030381529060405280519060200120610327565b90505b9392505050565b6000806102118585856100bc565b905073ffffffffffffffffffffffffffffffffffffffff81163b8015610239575090506101fc565b8360001b7f000000000000000000000000000000000000000000000000000000000000000087876040516024016102719291906103c6565b604080517fffffffffffffffffffffffffffffffffffffffffffffffffffffffffffffffe08184030181529181526020820180517bffffffffffffffffffffffffffffffffffffffffffffffffffffffff167fc151c0b900000000000000000000000000000000000000000000000000000000179052516102f190610359565b6102fc929190610437565b8190604051809103906000f590508015801561031c573d6000803e3d6000fd5b509695505050505050565b60006101fc8383306000604051836040820152846020820152828152600b8101905060ff815360559020949350505050565b610417806104d583390190565b600080600083850360a081121561037c57600080fd5b606081121561038a57600080fd5b50839250606084013573ffffffffffffffffffffffffffffffffffffffff811681146103b557600080fd5b929592945050506080919091013590565b8235815260208084013590820152608081016040840135600381106103ea57600080fd5b604083015273ffffffffffffffffffffffffffffffffffffffff92909216606090910152919050565b60005b8381101561042e578181015183820152602001610416565b50506000910152565b73ffffffffffffffffffffffffffffffffffffffff831681526040602082015260008251806040840152610472816060850160208701610413565b601f017fffffffffffffffffffffffffffffffffffffffffffffffffffffffffffffffe016919091016060019392505050565b600083516104b7818460208801610413565b8351908301906104cb818360208801610413565b0194935050505056fe608060405260405161041738038061041783398101604081905261002291610268565b61002c8282610033565b5050610352565b61003c82610092565b6040516001600160a01b038316907fbc7cd75a20ee27fd9adebab32041f755214dbc6bffa90cc0225b39da2e5c2d3b90600090a280511561008657610081828261010e565b505050565b61008e610185565b5050565b806001600160a01b03163b6000036100cd57604051634c9c8ce360e01b81526001600160a01b03821660048201526024015b60405180910390fd5b7f360894a13ba1a3210667c828492db98dca3e2076cc3735a920a3ca505d382bbc80546001600160a01b0319166001600160a01b0392909216919091179055565b6060600080846001600160a01b03168460405161012b9190610336565b600060405180830381855af49150503d8060008114610166576040519150601f19603f3d011682016040523d82523d6000602084013e61016b565b606091505b50909250905061017c8583836101a6565b95945050505050565b34156101a45760405163b398979f60e01b815260040160405180910390fd5b565b6060826101bb576101b682610205565b6101fe565b81511580156101d257506001600160a01b0384163b155b156101fb57604051639996b31560e01b81526001600160a01b03851660048201526024016100c4565b50805b9392505050565b8051156102155780518082602001fd5b604051630a12f52160e11b815260040160405180910390fd5b634e487b7160e01b600052604160045260246000fd5b60005b8381101561025f578181015183820152602001610247565b50506000910152565b6000806040838503121561027b57600080fd5b82516001600160a01b038116811461029257600080fd5b60208401519092506001600160401b03808211156102af57600080fd5b818501915085601f8301126102c357600080fd5b8151818111156102d5576102d561022e565b604051601f8201601f19908116603f011681019083821181831017156102fd576102fd61022e565b8160405282815288602084870101111561031657600080fd5b610327836020830160208801610244565b80955050505050509250929050565b60008251610348818460208701610244565b9190910192915050565b60b7806103606000396000f3fe6080604052600a600c565b005b60186014601a565b605e565b565b600060597f360894a13ba1a3210667c828492db98dca3e2076cc3735a920a3ca505d382bbc5473ffffffffffffffffffffffffffffffffffffffff1690565b905090565b3660008037600080366000845af43d6000803e808015607c573d6000f35b3d6000fdfea2646970667358221220d7f23a80daebb5531c9e4a18d87e812fca112e5df7e56433218edcc12bbe415d64736f6c63430008170033a26469706673582212204aec8096382781e3dcd4e171f2ed40f3ffa23291e8c18f6557c318f750f2389564736f6c6343000817003360a06040523480156200001157600080fd5b5060405162002190380380620021908339810160408190526200003491620000ba565b6001600160a01b0381166080526200004b62000052565b50620000ec565b63409feecd1980546001811615620000725763f92ee8a96000526004601cfd5b6001600160401b03808260011c14620000b5578060011b8355806020527fc7f505b2f371ae2175ee4913f4499e1f2633a7b5936321eed1cdaeb6115181d2602080a15b505050565b600060208284031215620000cd57600080fd5b81516001600160a01b0381168114620000e557600080fd5b9392505050565b6080516120736200011d60003960008181610339015281816107ee0152818161098e0152610e4601526120736000f3fe60806040526004361061012d5760003560e01c8063b0d691fe116100a5578063c151c0b911610074578063d605e6bf11610059578063d605e6bf14610407578063f23a6e6114610427578063fdbaa17d1461046d57600080fd5b8063c151c0b9146103d2578063d087d288146103f257600080fd5b8063b0d691fe1461032a578063b3ca336f146102d3578063b61d27f61461035d578063bc197c811461038a57600080fd5b806334fcd5be116100fc57806355540e21116100e157806355540e21146102b35780636e2cbb69146102d35780637a5ee0ca146102fd57600080fd5b806334fcd5be146102645780635437988d1461029157600080fd5b806301ffc9a714610139578063150b7a021461016e57806319822f7c146101e45780632b7ac3f31461021257600080fd5b3661013457005b600080fd5b34801561014557600080fd5b5061015961015436600461173a565b61048d565b60405190151581526020015b60405180910390f35b34801561017a57600080fd5b506101b36101893660046117ee565b7f150b7a020000000000000000000000000000000000000000000000000000000095945050505050565b6040517fffffffff000000000000000000000000000000000000000000000000000000009091168152602001610165565b3480156101f057600080fd5b506102046101ff36600461185d565b610572565b604051908152602001610165565b34801561021e57600080fd5b5060005461023f9073ffffffffffffffffffffffffffffffffffffffff1681565b60405173ffffffffffffffffffffffffffffffffffffffff9091168152602001610165565b34801561027057600080fd5b5061028461027f3660046118f6565b610598565b60405161016591906119a6565b34801561029d57600080fd5b506102b16102ac366004611a28565b61061f565b005b3480156102bf57600080fd5b506102b16102ce366004611a52565b610633565b3480156102df57600080fd5b506102046102ee366004611a85565b60009182526020526040902090565b34801561030957600080fd5b5061031d610318366004611aa7565b61068e565b6040516101659190611aef565b34801561033657600080fd5b507f000000000000000000000000000000000000000000000000000000000000000061023f565b34801561036957600080fd5b5061037d610378366004611b4b565b610713565b6040516101659190611ba5565b34801561039657600080fd5b506101b36103a5366004611bb8565b7fbc197c810000000000000000000000000000000000000000000000000000000098975050505050505050565b3480156103de57600080fd5b506102b16103ed366004611c73565b610754565b3480156103fe57600080fd5b506102046107ea565b34801561041357600080fd5b506102b1610422366004611aa7565b6108a9565b34801561043357600080fd5b506101b3610442366004611ca5565b7ff23a6e61000000000000000000000000000000000000000000000000000000009695505050505050565b34801561047957600080fd5b506102b1610488366004611d1d565b610930565b60007fffffffff0000000000000000000000000000000000000000000000000000000082167f150b7a0200000000000000000000000000000000000000000000000000000000148061052057507fffffffff0000000000000000000000000000000000000000000000000000000082167f4e2312e000000000000000000000000000000000000000000000000000000000145b8061056c57507fffffffff0000000000000000000000000000000000000000000000000000000082167f01ffc9a700000000000000000000000000000000000000000000000000000000145b92915050565b600061057c610976565b6105868484610a1c565b905061059182610c0a565b9392505050565b60606105a2610976565b6040519050818152806020018260051b81018360051b858337805b8083146106145782518601604081013581018035602082018537600038823586602086013586355af16105f3573d6000853e3d84fd5b50508183523d8252602082013d6000823e602093909301923d0191506105bd565b506040525092915050565b610627610c81565b61063081610cea565b50565b61063b610c81565b6040805160608101825273ffffffffffffffffffffffffffffffffffffffff8416815260006020820181905291810183600281111561067c5761067c611ac0565b9052905061068981610d5d565b505050565b6106af60408051606081018252600080825260208201819052909182015290565b6000828152600160208181526040928390208351606081018552815481529281015491830191909152600280820154929391929184019160ff16908111156106f9576106f9611ac0565b600281111561070a5761070a611ac0565b90525092915050565b606061071d610976565b5060405181838237600038838387895af161073b573d6000823e3d81fd5b3d8152602081013d6000823e3d01604052949350505050565b7fffffffffffffffffffffffffffffffffffffffffffffffffffffffffbf60113280546003825580156107a65760018160011c14303b1061079d5763f92ee8a96000526004601cfd5b818160ff1b1b91505b506107b18383610e0c565b8015610689576002815560016020527fc7f505b2f371ae2175ee4913f4499e1f2633a7b5936321eed1cdaeb6115181d2602080a1505050565b60007f00000000000000000000000000000000000000000000000000000000000000006040517f35567e1a0000000000000000000000000000000000000000000000000000000081523060048201526000602482015273ffffffffffffffffffffffffffffffffffffffff91909116906335567e1a90604401602060405180830381865afa158015610880573d6000803e3d6000fd5b505050506040513d601f19601f820116820180604052508101906108a49190611d52565b905090565b6108b1610c81565b60008181526001602081905260408083208381559182019290925560020180547fffffffffffffffffffffffffffffffffffffffffffffffffffffffffffffff00169055517f1b434e265f6e21f60a4fb02d9ffe4bdd1f98cf1c304a8535ed5f04271f155657906109259083815260200190565b60405180910390a150565b610938610c81565b6000604051806060016040528085815260200184815260200183600281111561096357610963611ac0565b9052905061097081610d5d565b50505050565b3373ffffffffffffffffffffffffffffffffffffffff7f00000000000000000000000000000000000000000000000000000000000000001614610a1a576040517f08c379a000000000000000000000000000000000000000000000000000000000815260206004820152601c60248201527f6163636f756e743a206e6f742066726f6d20456e747279506f696e740000000060448201526064015b60405180910390fd5b565b600080610a2d610100850185611d6b565b610a3c91602091600091611dd0565b610a4591611dfa565b905060006001600083815260200190815260200160002060405180606001604052908160008201548152602001600182015481526020016002820160009054906101000a900460ff166002811115610a9f57610a9f611ac0565b6002811115610ab057610ab0611ac0565b9052509050600081604001516002811115610acd57610acd611ac0565b03610b34576040517f08c379a000000000000000000000000000000000000000000000000000000000815260206004820152601560248201527f6163636f756e743a20756e617574686f72697a656400000000000000000000006044820152606401610a11565b366000610b45610100880188611d6b565b610b53916020908290611dd0565b6020850151919350915015610bb657600283604001516002811115610b7a57610b7a611ac0565b03610b9657610b8b83878484610e91565b94505050505061056c565b610b8b8387610baf898860009182526020526040902090565b8585610f43565b600283604001516002811115610bce57610bce611ac0565b03610bdf57610b8b838784846110e4565b610bff8387610bf8898860009182526020526040902090565b8585611188565b979650505050505050565b80156106305760405160009033907fffffffffffffffffffffffffffffffffffffffffffffffffffffffffffffffff90849084818181858888f193505050503d8060008114610c75576040519150601f19603f3d011682016040523d82523d6000602084013e610c7a565b606091505b5050505050565b333014610a1a576040517f08c379a000000000000000000000000000000000000000000000000000000000815260206004820152600960248201527f6f6e6c792073656c6600000000000000000000000000000000000000000000006044820152606401610a11565b600080547fffffffffffffffffffffffff00000000000000000000000000000000000000001673ffffffffffffffffffffffffffffffffffffffff83169081179091556040519081527fba4d89f2b152b9d8b347adcb7ba054b21f39d83806bc75af8b2865cb8fc899d490602001610925565b805160208083018051600093845282526040808420808552600193849052938190208551815591518284015584015160028083018054879591927fffffffffffffffffffffffffffffffffffffffffffffffffffffffffffffff0090911691908490811115610dce57610dce611ac0565b0217905550506040518281527f5c1be025a34354869dc1e444a870ac3fba82d3908fc65191bb85af33aba04f51915060200160405180910390a15050565b610e23610e1e36849003840184611e65565b610d5d565b610e2c81610cea565b60405173ffffffffffffffffffffffffffffffffffffffff7f000000000000000000000000000000000000000000000000000000000000000016907fcf8ddf065b2cfdd1f0d020f72f2e835a9171d3393e3af43f3677fbd7baa0908290600090a25050565b60008084604051602001610ea791815260200190565b604080517fffffffffffffffffffffffffffffffffffffffffffffffffffffffffffffffe08184030181526020601f87018190048102840181019092528583529250600091610f1391849190889088908190840183828082843760009201919091525061127192505050565b9050610f2b826001838a600001518b6020015161132b565b610f36576001610bff565b6000979650505050505050565b60008085604051602001610f5991815260200190565b604080517fffffffffffffffffffffffffffffffffffffffffffffffffffffffffffffffe081840301815291905290506000610fd682610f9c866041818a611dd0565b8080601f01602080910402602001604051908101604052809392919081815260200183838082843760009201919091525061127192505050565b9050600061105461100c886020527b19457468657265756d205369676e6564204d6573736167653a0a3332600052603c60042090565b61101a60416000898b611dd0565b8080601f01602080910402602001604051908101604052809392919081815260200183838082843760009201919091525061146292505050565b73ffffffffffffffffffffffffffffffffffffffff1660008054906101000a900473ffffffffffffffffffffffffffffffffffffffff1673ffffffffffffffffffffffffffffffffffffffff1614905060006110bc846001858d600001518e6020015161132b565b90508180156110c85750805b6110d35760016110d6565b60005b9a9950505050505050505050565b6000611154611118856020527b19457468657265756d205369676e6564204d6573736167653a0a3332600052603c60042090565b84848080601f01602080910402602001604051908101604052809392919081815260200183838082843760009201919091525061146292505050565b855173ffffffffffffffffffffffffffffffffffffffff90811691161461117c57600161117f565b60005b95945050505050565b6000806111cb6111bd866020527b19457468657265756d205369676e6564204d6573736167653a0a3332600052603c60042090565b61101a604160008789611dd0565b6000805473ffffffffffffffffffffffffffffffffffffffff908116921691909114915061122e611221886020527b19457468657265756d205369676e6564204d6573736167653a0a3332600052603c60042090565b61101a866041818a611dd0565b885173ffffffffffffffffffffffffffffffffffffffff90811691161490508180156112575750805b611262576001611265565b60005b98975050505050505050565b6040805160c081018252606080825260208201819052600092820183905281018290526080810182905260a08101919091526000806000806000806000888060200190518101906112c29190611f77565b96509650965096509650965096506040518060c00160405280888152602001611301876112fb6112f48f60018061150d565b8b9061161e565b9061161e565b81526020018581526020018481526020018381526020018281525097505050505050505092915050565b600080600061133c8860018061150d565b905060208601518051602082019150604088015160608901518451600d81017f226368616c6c656e6765223a220000000000000000000000000000000000000060981c87528484820110602282868901015160001a14168160138901208286890120141685846014011085851760801c107f2274797065223a22776562617574686e2e67657422000000000000000000000060581c8589015160581c14161698505080865250505087515189151560021b600117808160218c510151161460208311881616965050851561143957602089510181810180516020600160208601856020868a8c60025afa60011b5afa51915295503d905061143957fe5b5050508215611457576112658287608001518860a00151888861162a565b505095945050505050565b600060405182516040811461147f57604181146114b957506114f8565b604084015160ff81901c601b016020527f7fffffffffffffffffffffffffffffffffffffffffffffffffffffffffffffff166060526114cd565b606084015160001a60205260408401516060525b50836000526020830151604052602060016080600060015afa5191506000606052806040523d611506575b638baa579f6000526004601cfd5b5092915050565b606083518015611616576003600282010460021b60405192507f4142434445464748494a4b4c4d4e4f505152535455565758595a616263646566601f526106708515027f6768696a6b6c6d6e6f707172737475767778797a303132333435363738392d5f18603f52602083018181018388602001018051600082525b60038a0199508951603f8160121c1651600053603f81600c1c1651600153603f8160061c1651600253603f8116516003535060005184526004840193508284106115895790526020016040527f3d3d000000000000000000000000000000000000000000000000000000000000600384066002048083039190915260008615159091029182900352900382525b509392505050565b606061059183836116c0565b6000604051868152856020820152846040820152836060820152826080820152600080526020600060a0836101005afa503d61168a5760203d60a0836dd01ea45f9efd5c54f037fa57ea1a5afa503d61168a5763d0d5039b3d526004601cfd5b506000516001147f7fffffff800000007fffffffffffffffde737d56d38bcf4279dce5617e3192a8851110905095945050505050565b60405182517fffffffffffffffffffffffffffffffffffffffffffffffffffffffffffffffe0906020810182165b85810151848201528201806116ee575083518184018360208301165b868101518282015284018061170a5750506000910183810160208101929092528352604090810190525092915050565b60006020828403121561174c57600080fd5b81357fffffffff000000000000000000000000000000000000000000000000000000008116811461059157600080fd5b803573ffffffffffffffffffffffffffffffffffffffff811681146117a057600080fd5b919050565b60008083601f8401126117b757600080fd5b50813567ffffffffffffffff8111156117cf57600080fd5b6020830191508360208285010111156117e757600080fd5b9250929050565b60008060008060006080868803121561180657600080fd5b61180f8661177c565b945061181d6020870161177c565b935060408601359250606086013567ffffffffffffffff81111561184057600080fd5b61184c888289016117a5565b969995985093965092949392505050565b60008060006060848603121561187257600080fd5b833567ffffffffffffffff81111561188957600080fd5b8401610120818703121561189c57600080fd5b95602085013595506040909401359392505050565b60008083601f8401126118c357600080fd5b50813567ffffffffffffffff8111156118db57600080fd5b6020830191508360208260051b85010111156117e757600080fd5b6000806020838503121561190957600080fd5b823567ffffffffffffffff81111561192057600080fd5b61192c858286016118b1565b90969095509350505050565b60005b8381101561195357818101518382015260200161193b565b50506000910152565b60008151808452611974816020860160208601611938565b601f017fffffffffffffffffffffffffffffffffffffffffffffffffffffffffffffffe0169290920160200192915050565b600060208083016020845280855180835260408601915060408160051b87010192506020870160005b82811015611a1b577fffffffffffffffffffffffffffffffffffffffffffffffffffffffffffffffc0888603018452611a0985835161195c565b945092850192908501906001016119cf565b5092979650505050505050565b600060208284031215611a3a57600080fd5b6105918261177c565b8035600381106117a057600080fd5b60008060408385031215611a6557600080fd5b611a6e8361177c565b9150611a7c60208401611a43565b90509250929050565b60008060408385031215611a9857600080fd5b50508035926020909101359150565b600060208284031215611ab957600080fd5b5035919050565b7f4e487b7100000000000000000000000000000000000000000000000000000000600052602160045260246000fd5b81518152602080830151908201526040820151606082019060038110611b3e577f4e487b7100000000000000000000000000000000000000000000000000000000600052602160045260246000fd5b8060408401525092915050565b60008060008060608587031215611b6157600080fd5b611b6a8561177c565b935060208501359250604085013567ffffffffffffffff811115611b8d57600080fd5b611b99878288016117a5565b95989497509550505050565b602081526000610591602083018461195c565b60008060008060008060008060a0898b031215611bd457600080fd5b611bdd8961177c565b9750611beb60208a0161177c565b9650604089013567ffffffffffffffff80821115611c0857600080fd5b611c148c838d016118b1565b909850965060608b0135915080821115611c2d57600080fd5b611c398c838d016118b1565b909650945060808b0135915080821115611c5257600080fd5b50611c5f8b828c016117a5565b999c989b5096995094979396929594505050565b6000808284036080811215611c8757600080fd5b6060811215611c9557600080fd5b50829150611a7c6060840161177c565b60008060008060008060a08789031215611cbe57600080fd5b611cc78761177c565b9550611cd56020880161177c565b94506040870135935060608701359250608087013567ffffffffffffffff811115611cff57600080fd5b611d0b89828a016117a5565b979a9699509497509295939492505050565b600080600060608486031215611d3257600080fd5b8335925060208401359150611d4960408501611a43565b90509250925092565b600060208284031215611d6457600080fd5b5051919050565b60008083357fffffffffffffffffffffffffffffffffffffffffffffffffffffffffffffffe1843603018112611da057600080fd5b83018035915067ffffffffffffffff821115611dbb57600080fd5b6020019150368190038213156117e757600080fd5b60008085851115611de057600080fd5b83861115611ded57600080fd5b5050820193919092039150565b8035602083101561056c577fffffffffffffffffffffffffffffffffffffffffffffffffffffffffffffffff602084900360031b1b1692915050565b7f4e487b7100000000000000000000000000000000000000000000000000000000600052604160045260246000fd5b600060608284031215611e7757600080fd5b6040516060810181811067ffffffffffffffff82111715611e9a57611e9a611e36565b80604052508235815260208301356020820152611eb960408401611a43565b60408201529392505050565b600067ffffffffffffffff80841115611ee057611ee0611e36565b604051601f85017fffffffffffffffffffffffffffffffffffffffffffffffffffffffffffffffe0908116603f01168101908282118183101715611f2657611f26611e36565b81604052809350858152868686011115611f3f57600080fd5b611f4d866020830187611938565b5050509392505050565b600082601f830112611f6857600080fd5b61059183835160208501611ec5565b600080600080600080600060e0888a031215611f9257600080fd5b875167ffffffffffffffff80821115611faa57600080fd5b818a0191508a601f830112611fbe57600080fd5b611fcd8b835160208501611ec5565b985060208a0151915080821115611fe357600080fd5b611fef8b838c01611f57565b975060408a015191508082111561200557600080fd5b506120128a828b01611f57565b955050606088015193506080880151925060a0880151915060c088015190509295989194975092955056fea26469706673582212201f903fe3eef6d6f53371e8ea238cf0c52fbcfa864c0ce6c53b9de0a08cf7952064736f6c63430008170033",
  "devdoc": {
    "kind": "dev",
    "methods": {},
    "version": 1
  },
  "userdoc": {
    "kind": "user",
    "methods": {
      "createAccount((bytes32,bytes32,uint8),address,uint256)": {
        "notice": "create an account, and return its address. returns the address even if the account is already deployed. Note that during UserOperation execution, this method is called only if the account is not deployed. This method returns an existing account address so that entryPoint.getSenderAddress() would work even after account creation"
      },
      "getAddress((bytes32,bytes32,uint8),address,uint256)": {
        "notice": "calculate the counterfactual address of this account as it would be returned by createAccount()"
      }
    },
    "notice": "The factory contract for SimpleTeamAccount. SimpleTeamAccountFactory is originally forked from SimpleAccountFactory.",
    "version": 1
  },
  "storageLayout": {
    "storage": [],
    "types": null
  }
}